{
    "contractName": "RockPaperScissors",
    "abi": [
        {
            "inputs": [
                {
                    "internalType": "address",
                    "name": "_usdtToken",
                    "type": "address"
                }
            ],
            "stateMutability": "nonpayable",
            "type": "constructor"
        },
        {
            "inputs": [],
            "name": "admin",
            "outputs": [
                {
                    "internalType": "address",
                    "name": "",
                    "type": "address"
                }
            ],
            "stateMutability": "view",
            "type": "function"
        },
        {
            "inputs": [
                {
                    "internalType": "uint256",
                    "name": "",
                    "type": "uint256"
                }
            ],
            "name": "availableWeights",
            "outputs": [
                {
                    "internalType": "uint256",
                    "name": "",
                    "type": "uint256"
                }
            ],
            "stateMutability": "view",
            "type": "function"
        },
        {
            "inputs": [
                {
                    "internalType": "uint256",
                    "name": "panelWeight",
                    "type": "uint256"
                }
            ],
            "name": "createGame",
            "outputs": [],
            "stateMutability": "nonpayable",
            "type": "function"
        },
        {
            "inputs": [
                {
                    "internalType": "uint256",
                    "name": "",
                    "type": "uint256"
                }
            ],
            "name": "games",
            "outputs": [
                {
                    "internalType": "address",
                    "name": "player1",
                    "type": "address"
                },
                {
                    "internalType": "address",
                    "name": "player2",
                    "type": "address"
                },
                {
                    "internalType": "uint256",
                    "name": "player1Stake",
                    "type": "uint256"
                },
                {
                    "internalType": "uint256",
                    "name": "player2Stake",
                    "type": "uint256"
                },
                {
                    "internalType": "enum RockPaperScissors.Move",
                    "name": "player1Move",
                    "type": "uint8"
                },
                {
                    "internalType": "enum RockPaperScissors.Move",
                    "name": "player2Move",
                    "type": "uint8"
                },
                {
                    "internalType": "enum RockPaperScissors.GameState",
                    "name": "state",
                    "type": "uint8"
                },
                {
                    "internalType": "uint256",
                    "name": "panelWeight",
                    "type": "uint256"
                }
            ],
            "stateMutability": "view",
            "type": "function"
        },
        {
            "inputs": [
                {
                    "internalType": "uint256",
                    "name": "gameId",
                    "type": "uint256"
                }
            ],
            "name": "joinGame",
            "outputs": [],
            "stateMutability": "nonpayable",
            "type": "function"
        },
        {
            "inputs": [
                {
                    "internalType": "uint256",
                    "name": "gameId",
                    "type": "uint256"
                },
                {
                    "internalType": "enum RockPaperScissors.Move",
                    "name": "move",
                    "type": "uint8"
                }
            ],
            "name": "makeMove",
            "outputs": [],
            "stateMutability": "nonpayable",
            "type": "function"
        },
        {
            "inputs": [],
            "name": "usdtToken",
            "outputs": [
                {
                    "internalType": "contract IERC20",
                    "name": "",
                    "type": "address"
                }
            ],
            "stateMutability": "view",
            "type": "function"
        },
        {
            "inputs": [
                {
                    "internalType": "address",
                    "name": "",
                    "type": "address"
                }
            ],
            "name": "winnings",
            "outputs": [
                {
                    "internalType": "uint256",
                    "name": "",
                    "type": "uint256"
                }
            ],
            "stateMutability": "view",
            "type": "function"
        },
        {
            "inputs": [],
            "name": "withdrawWinnings",
            "outputs": [],
            "stateMutability": "nonpayable",
            "type": "function"
        }
    ],
    "bytecode": "60806040523461016b57604051601f610b9138819003918201601f19168301916001600160401b038311848410176101575780849260209460405283398101031261016b57516001600160a01b0381169081900361016b57604051608081016001600160401b0381118282101761015757604052600a815260326020820152606460408201526103e8606082015260045460048055806004106100f7575b5060045f5260205f20905f5b600481106100df575f80546001600160a01b031990811633179091556001805490911685179055604051610a2190816101708239f35b600190602061ffff84511693019281850155016100a9565b60045f527f8a35acfbc15ff81a39ae7d344fd709f28e8600b4aa8c65c6b64bfe7fe36bd19b017f8a35acfbc15ff81a39ae7d344fd709f28e8600b4aa8c65c6b64bfe7fe36bd19f5b81811061014c575061009d565b5f815560010161013f565b634e487b7160e01b5f52604160045260245ffd5b5f80fdfe60806040526004361015610011575f80fd5b5f3560e01c8063117a5b90146107e65780632ad019b8146107ae57806348e837b9146105b55780637fd6f7c414610308578063a98ad46c146102e0578063cc42e83a1461022e578063ea3a1499146101f2578063efaa55a0146100a75763f851a4401461007c575f80fd5b346100a3575f3660031901126100a3575f546040516001600160a01b039091168152602090f35b5f80fd5b346100a35760203660031901126100a3576100e96004356100e460ff60046100ce84610899565b50015460101c166100de816108c9565b15610970565b610899565b506001810180546001600160a01b03166101ad57600582015481546001600160a01b03191633908117909255600383018190556004928301805462ff00001916620100001790556001546040516323b872dd60e01b815293840192909252306024840152604483015260209082906001600160a01b0316815f81606481015b03925af180156101a25761017857005b6101999060203d60201161019b575b61019181836108ff565b810190610958565b005b503d610187565b6040513d5f823e3d90fd5b60405162461bcd60e51b815260206004820152601c60248201527f47616d6520616c7265616479206861732074776f20706c6179657273000000006044820152606490fd5b346100a35760203660031901126100a3576004356001600160a01b038116908190036100a3575f526003602052602060405f2054604051908152f35b346100a3575f3660031901126100a357335f52600360205260405f2054801561029b5760205f9133835260038252826040812055604460018060a01b036001541691604051948593849263a9059cbb60e01b845233600485015260248401525af180156101a25761017857005b60405162461bcd60e51b815260206004820152601760248201527f4e6f2077696e6e696e677320746f2077697468647261770000000000000000006044820152606490fd5b346100a3575f3660031901126100a3576001546040516001600160a01b039091168152602090f35b346100a35760403660031901126100a35760043560243560038110156100a35761033182610899565b50546001600160a01b031633148015610596575b1561055157600490610374600160ff8461035e87610899565b50015460101c1661036e816108c9565b14610970565b61037d83610899565b509060018060a01b0382541633145f146105405761039d90838301610921565b015460ff81166103ac816108c9565b15159081610527575b506103bc57005b6103c590610899565b506004810190815460ff8082169160081c166103e0816108c9565b6103e9826108c9565b81810361046257505060055f915b0154908160011b918083046002149015171561044e576001600160a01b03168061042f575b5050805462ff0000191662020000179055005b5f52600360205260405f20805491820180921161044e5755818061041c565b634e487b7160e01b5f52601160045260245ffd5b61046b826108c9565b81159182610512575b82156104e6575b82156104b4575b50501561049d5780546001600160a01b0316906005906103f7565b60018101546001600160a01b0316906005906103f7565b60029192506104c2816108c9565b1490816104d2575b508380610482565b600191506104df816108c9565b14836104ca565b91506104f1826108c9565b6001821480610501575b9161047b565b5061050b816108c9565b80156104fb565b915061051d816108c9565b6002811491610474565b60ff915060081c16610538816108c9565b1515826103b5565b61054c90838301610939565b61039d565b60405162461bcd60e51b815260206004820152601e60248201527f4f6e6c7920706c61796572732063616e206a6f696e207468652067616d6500006044820152606490fd5b506105a082610899565b50600101546001600160a01b03163314610345565b346100a35760203660031901126100a3576004356105d2816109b1565b1561076957604051610100810181811067ffffffffffffffff8211176107555760405233815260208101915f8352604082019080825260608301925f845260808101945f865260a08201955f875260c08301905f825260e084019185835260025468010000000000000000811015610755578060016106549201600255610899565b959095610742575185546001600160a01b03199081166001600160a01b039283161787559451600187018054909616911617909355945160028401559451600383015592515f9560209561016895600593919260048601926106d491906106c4906106be816108c9565b85610921565b516106ce816108c9565b83610939565b516106de816108c9565b6106e7816108c9565b815462ff0000191660109190911b62ff000016179055519101556001546040516323b872dd60e01b81523360048201523060248201526044810192909252909384926001600160a01b03929092169183919082906064820190565b634e487b7160e01b5f525f60045260245ffd5b634e487b7160e01b5f52604160045260245ffd5b60405162461bcd60e51b815260206004820152601760248201527f496e76616c6964207765696768742073656c65637465640000000000000000006044820152606490fd5b346100a35760203660031901126100a3576004356004548110156100a3576107d76020916108e7565b90549060031b1c604051908152f35b346100a35760203660031901126100a3576004356002548110156100a35761081061010091610899565b5080546001820154600283015460038401546004850154600590950154604080516001600160a01b03968716815294909516602085015293830191909152606082015291601081901c60ff90811691600881901c82169116610871816108c9565b608085015261087f816108c9565b60a084015261088d816108c9565b60c083015260e0820152f35b6002548110156108b55760025f52600660205f20910201905f90565b634e487b7160e01b5f52603260045260245ffd5b600311156108d357565b634e487b7160e01b5f52602160045260245ffd5b6004548110156108b55760045f5260205f2001905f90565b90601f8019910116810190811067ffffffffffffffff82111761075557604052565b9061092b816108c9565b60ff80198354169116179055565b90610943816108c9565b61ff0082549160081b169061ff001916179055565b908160209103126100a3575180151581036100a35790565b1561097757565b60405162461bcd60e51b8152602060048201526012602482015271496e76616c69642067616d6520737461746560701b6044820152606490fd5b600454905f5b8281106109c5575050505f90565b816109cf826108e7565b90549060031b1c146109e3576001016109b7565b50505060019056fea2646970667358221220f8d42d9d26c5bef6ee765dd6b39bef89ff0485363d1bfc05f16daaa0f31cddf264736f6c634300081c0033",
    "sourcePath": "e:/My Work/blockchain/rockpaperscissors/contracts/RockPaperScissors.sol",
    "compiler": {
        "name": "solc",
        "version": "0.8.28+commit.7893614a"
    },
    "functionHashes": {
        "admin()": "f851a440",
        "availableWeights(uint256)": "2ad019b8",
        "createGame(uint256)": "48e837b9",
        "games(uint256)": "117a5b90",
        "joinGame(uint256)": "efaa55a0",
        "makeMove(uint256,uint8)": "7fd6f7c4",
        "usdtToken()": "a98ad46c",
        "winnings(address)": "ea3a1499",
        "withdrawWinnings()": "cc42e83a"
    },
    "gasEstimates": {
        "creation": {
            "codeDepositCost": "518600",
            "executionCost": "infinite",
            "totalCost": "infinite"
        },
        "external": {
            "admin()": "2444",
            "availableWeights(uint256)": "6626",
            "createGame(uint256)": "infinite",
            "games(uint256)": "infinite",
            "joinGame(uint256)": "infinite",
            "makeMove(uint256,uint8)": "infinite",
            "usdtToken()": "2360",
            "winnings(address)": "2491",
            "withdrawWinnings()": "infinite"
        },
        "internal": {
            "endGame(uint256)": "infinite",
            "isValidWeight(uint256)": "infinite"
        }
    }
}